:100000000C9446000C944B010C944B010C944B0146
:100010000C944B010C944B010C944B010C944B0130
:100020000C944B010C944B010C944B010C944B0120
:100030000C944B010C944B010C944B010C944B0110
:100040000C944B010C944B010C944B010C944B0100
:100050000C944B010C944B010C944B010C944B01F0
:100060000C944B010C944B010C944B010C944B01E0
:100070000C944B010C944B010C944B010C944B01D0
:100080000C944B010C944B010C944B0111241FBE9A
:10009000CFEFD0E1DEBFCDBF0E9452000C945000E4
:0400A000F894FFCF02
:1000A400CF93DF931F92CDB7DEB70E948F008FE10D
:1000B4009EE40197F1F700C000000E9422018FE343
:1000C4009CE90197F1F700C000008FE39CE90197D8
:1000D400F1F700C0000000E010E095B381E089274B
:1000E40085BB82E090E00E9447014AE0BE016F5F59
:1000F4007F4FC8010E943C018AEF90E00E941301E7
:10010400CE0101960E942F018AEF90E00E94130114
:0A0114000E9422010F5F1F4FE0CF91
:10011E00CF938FEF84BB85BB81BB8ABB15BA1BBA4D
:10012E00C0E2C5BB0E94CC00C5BB0E94CC0080E8DB
:10013E0085BB0E94CC0015BA0E94CC0080EF85BB17
:10014E000E94CC0015BA0E94CC0080E685BB0E94AE
:06015E00CC00CF910895D2
:10016400BB27FB015527AA27880F991FAA1FA4178D
:1001740010F0A41B83955051B9F7A05DAA3308F081
:10018400A95DA193009779F7B111B1931192CB01B5
:040194000C940301C3
:100198008BB380648BBB8FEC97E00197F1F700C0BD
:1001A80000008BB38F7B8BBB8FEC97E00197F1F747
:0601B80000C000000895E4
:1001BE00CF93C82F85BB8BB38F7E8BBB0E94CC0099
:1001CE00C295C07FC5BB8BB38F7E8BBB0E94CC000C
:0401DE00CF91089520
:1001E200CF93C82F85BB8BB380618BBB0E94CC00A1
:1001F200C295C07FC5BB8BB380618BBB0E94CC0014
:04020200CF910895FB
:10020600DC01FC01672F71917723E1F7329704C077
:100216007C916D9370836291AE17BF07C8F3089502
:1002260020E030E008C0EFECF7E03197F1F700C0CE
:0E02360000002F5F3F4F28173907ACF30895E3
:1002440081E00E94DF008FE99FE00197F1F700C091
:0A025400000080E80E94DF0008951A
:10025E00CF93DF93EC0103C00E94F10021968881B9
:0A026E008111FACFDF91CF910895BE
:10027800BB274A3031F4992322F4BDE29095819549
:060288009F4F0C94B3002F
:08028E0080580E94DF00089572
:040296000C940000C4
:00000001FF
