:100000000C9446000C94C4000C94C4000C94C400DE
:100010000C94C4000C94C4000C94C4000C94C40050
:100020000C94C4000C94C4000C94C4000C94C40040
:100030000C94C4000C94C4000C94C4000C94C40030
:100040000C94C4000C94C4000C94C4000C94C40020
:100050000C94C4000C94C4000C94C4000C94C40010
:100060000C94C4000C94C4000C94C4000C94C40000
:100070000C94C4000C94C4000C94C4000C94C400F0
:100080000C94C4000C94C4000C94C40011241FBE32
:10009000CFEFD0E1DEBFCDBF0E946D000C945000C9
:0400A000F894FFCF02
:0600A40068656C6C6F0042
:1000AA008FEF81BB8ABB12BA1BBA80E282BB0E9465
:1000BA00850015BA0E94850080E685BB0E948500EE
:1000CA0015BA0E94850080EF85BB0E9485000895BD
:1000DA00CF93DF9300D000D000D0CDB7DEB70E9417
:1000EA00550024EA30E040E086E0F901DE0111968D
:1000FA00742F0E94A900CE0101960E94B700FFCF7B
:10010A008BB380628BBB8FEC97E00197F1F700C04D
:10011A0000008BB38F7D8BBB8FEC97E00197F1F7D3
:06012A0000C00000089572
:10013000CF93DF93C82F85BBD8E0DBBB0E9485003F
:10014000C295C07FC5BBDBBB0E948500DF91CF910C
:02015000089510
:10015200992777FD06C07BBF07900D920197E1F7C3
:0C016200089501900D920197E1F70895B7
:10016E00CF93DF93EC0103C00E9498002196888103
:0A017E008111FACFDF91CF910895AF
:040188000C940000D3
:00000001FF
