:100000000C9446000C9408010C9408010C9408010F
:100010000C9408010C9408010C9408010C9408013C
:100020000C9408010C9408010C9408010C9408012C
:100030000C9408010C9408010C9408010C9408011C
:100040000C9408010C9408010C9408010C9408010C
:100050000C9408010C9408010C9408010C940801FC
:100060000C9408010C9408010C9408010C940801EC
:100070000C9408010C9408010C9408010C940801DC
:100080000C9408010C9408010C94080111241FBE63
:10009000CFEFD0E1DEBFCDBF0E9455000C945000E1
:0400A000F894FFCF02
:0600A40068656C6C6F0042
:1000AA00CF93DF9300D000D000D0CDB7DEB70E9447
:1000BA007B008AE090E00E94D3000E94FD0024EABF
:1000CA0030E040E086E0F901DE011196742F0E94CB
:1000DA00E200CE0101960E94F00095B381E08927E3
:0C00EA0085BB8AEF90E00E94D300F7CFA6
:1000F600CF938FEF81BB8ABB15BA1BBAC0E2C5BBD3
:100106000E949C00C5BB0E949C0080E885BB0E94A3
:100116009C0015BA0E949C0080EF85BB0E949C0043
:1001260015BA0E949C0080E685BB0E949C00CF9178
:0201360008952A
:100138008BB380648BBB8FEC97E00197F1F700C01D
:1001480000008BB38F7B8BBB8FEC97E00197F1F7A7
:0601580000C00000089544
:10015E00CF93C82F85BB8BB38F7E8BBB0E949C0029
:10016E00C295C07FC5BB8BB38F7E8BBB0E949C009C
:04017E00CF91089580
:10018200CF93C82F85BB8BB380618BBB0E949C0031
:10019200C295C07FC5BB8BB380618BBB0E949C00A4
:0401A200CF9108955C
:1001A60020E030E008C0E9EFF0E03197F1F700C059
:0E01B60000002F5F3F4F28173907ACF3089564
:1001C400992777FD06C07BBF07900D920197E1F751
:0C01D400089501900D920197E1F7089545
:1001E000CF93DF93EC0103C00E94C1002196888168
:0A01F0008111FACFDF91CF9108953D
:1001FA0081E00E94AF000E949C0080E80E94AF004C
:06020A000E949C00089513
:040210000C9400004A
:00000001FF
