:100000000C9446000C94B9000C94B9000C94B900FF
:100010000C94B9000C94B9000C94B9000C94B9007C
:100020000C94B9000C94B9000C94B9000C94B9006C
:100030000C94B9000C94B9000C94B9000C94B9005C
:100040000C94B9000C94B9000C94B9000C94B9004C
:100050000C94B9000C94B9000C94B9000C94B9003C
:100060000C94B9000C94B9000C94B9000C94B9002C
:100070000C94B9000C94B9000C94B9000C94B9001C
:100080000C94B9000C94B9000C94B90011241FBE53
:10009000CFEFD0E1DEBFCDBF0E9452000C945000E4
:0400A000F894FFCF02
:1000A400CF93DF93CDB7DEB7CE5FD1400FB6F894D0
:1000B400DEBF0FBECDBF8FEF81BB20E030E041E05B
:1000C40050E080E090E027C0F901EE0FFF1F61E0EF
:1000D40070E06C0F7D1FE60FF71F9183808341153D
:1000E400510569F0880F991F01968F3F910589F496
:1000F40061E0452B09F060E0462F50E00AC0880F0C
:10010400991F009731F461E0452B09F060E0462F18
:1001140050E02F5F3F4F2F3F3105B4F200E010E075
:1001240002C000E010E084E690E00E94AA00F8011A
:10013400EE0FFF1F81E090E08C0F9D1FE80FF91F69
:10014400808182BB0F5F1F4F0F3F110554F7EBCF28
:1001540020E030E008C0EFECF7E03197F1F700C0A1
:0E01640000002F5F3F4F28173907ACF30895B6
:040172000C940000E9
:00000001FF
