:100000000C9449000C947D000C94CD000C94870155
:100010000C9487010C9487010C9487010C94870140
:100020000C9487010C9487010C9487010C94870130
:100030000C9487010C9487010C9487010C94870120
:100040000C9487010C9487010C9487010C94870110
:100050000C9487010C9487010C9487010C94870100
:100060000C9487010C9487010C9487010C948701F0
:100070000C9487010C9487010C9487010C948701E0
:100080000C9487010C9487010C94870101000102F4
:10009000800011241FBECFEFD0E1DEBFCDBFECE862
:1000A000F0E040E019C0B791A791379127910791EF
:1000B00007FD0EC097918791EF01F92FE82F0BBF35
:1000C00007900D92A217B307D9F7FE011BBE04C01B
:1000D0001D92A217B307E1F7E139F40721F70E9457
:0A00E00058010C947300F894FFCF50
:1000EA003F065B4F666D7D077F6F777C395E79715E
:1000FA001F920F9200905F000F92112400905B00F4
:10010A000F922F933F934F935F936F937F938F93A6
:10011A009F93AF93BF93EF93FF93CF93DF93CDB7A3
:10012A00DEB780910001909101010196909301013F
:10013A008093000180E390E0FC018081882F90E0A9
:10014A008270992795958795019721F4109201015C
:10015A001092000180910001909101010E941B01FF
:10016A000000DF91CF91FF91EF91BF91AF919F91E5
:10017A008F917F916F915F914F913F912F910F9046
:10018A0000925B000F9000925F000F901F901895ED
:10019A001F920F9200905F000F92112400905B0053
:1001AA000F922F933F934F935F936F937F938F9306
:1001BA009F93AF93BF93EF93FF93CF93DF93CDB703
:1001CA00DEB780910001909101010197909301019E
:1001DA008093000180E390E0FC018081882F90E009
:1001EA0081709927892B21F0109201011092000148
:1001FA0080910001909101010E941B010000DF9192
:10020A00CF91FF91EF91BF91AF919F918F917F9184
:10021A006F915F914F913F912F910F9000925B00E8
:0C022A000F9000925F000F901F9018953D
:100236000F931F93CF93DF9300D000D0CDB7DEB7D7
:100246009C838B8380E190E09A83898329813A811C
:100256008B819C812817390724F08B819C819923F7
:1002660034F485E390E029E7FC01208314C005E31C
:1002760010E02AEE30E040E08B819C81092E000CD4
:10028600AA0B820F931FA41FFC015A2F0E94800104
:10029600862FF801808300000F900F900F900F902B
:0A02A600DF91CF911F910F91089591
:1002B000CF93DF93CDB7DEB781E390E020EFFC0171
:1002C000208384E390E02FEFFC0120838AE690E016
:1002D0002AE630E0F90120812B60FC01208389E5CA
:1002E00090E029E530E0F90120812360FC012083C2
:1002F000789480910001909101010E941B01FFCF31
:0E03000057FD03C05BBF6791089560810895AB
:04030E000C9400004B
:00000001FF
