:100000000C944A000C9483000C9483000C9483009D
:100010000C9483000C9483000C9483000C94830054
:100020000C9483000C9483000C9483000C94830044
:100030000C9483000C9483000C9483000C94830034
:100040000C9483000C9483000C9483000C94830024
:100050000C9483000C9483000C9483000C94830014
:100060000C9483000C9483000C9483000C94830004
:100070000C9483000C9483000C9483000C948300F4
:100080000C9483000C9483000C9483000C948300E4
:100090000C94830011241FBECFEFD0E1DEBFCDBF93
:0C00A0000E9456000C945400F894FFCF0E
:1000AC008FEF8AB9C0E0D0E0309B06C081E0CD2B49
:1000BC0009F080E0C82FD0E0209741F080E88BB9A0
:1000CC008AEF90E00E9474001BB8EECF80E88BB9E9
:0C00DC0088EE93E00E9474001BB8E6CF91
:1000E80020E030E008C0EFECF7E03197F1F700C00E
:0E00F80000002F5F3F4F28173907ACF3089523
:040106000C94000055
:00000001FF
