:100000000C9446000C9487000C9487000C94870095
:100010000C9487000C9487000C9487000C94870044
:100020000C9487000C9487000C9487000C94870034
:100030000C9487000C9487000C9487000C94870024
:100040000C9487000C9487000C9487000C94870014
:100050000C9487000C9487000C9487000C94870004
:100060000C9487000C9487000C9487000C948700F4
:100070000C9487000C9487000C9487000C948700E4
:100080000C9487000C9487000C94870011241FBEE9
:10009000CFEFD0E1DEBFCDBF0E9452000C945000E4
:0400A000F894FFCF02
:1000A4008FEF81BBC0E0D0E0989B06C081E0CD2BF0
:1000B40009F080E0C82FD0E0209761F080E882BB8F
:1000C4008AEF90E00E94780012BA8AEF90E00E94D2
:1000D4007800EACF80E882BB88EE93E00E94780043
:0C00E40012BA88EE93E00E947800DECF94
:1000F00020E030E008C0EFECF7E03197F1F700C006
:0E01000000002F5F3F4F28173907ACF308951A
:04010E000C9400004D
:00000001FF
