:100000000C9449000C94EC000C94EC000C94EC0063
:100010000C94EC000C94EC000C94EC000C94EC00B0
:100020000C94EC000C9475000C94EC000C94EC0017
:100030000C94EC000C94EC000C94EC000C94EC0090
:100040000C94EC000C94EC000C94EC000C94EC0080
:100050000C94EC000C94EC000C94EC000C94EC0070
:100060000C94EC000C94EC000C94EC000C94EC0060
:100070000C94EC000C94EC000C94EC000C94EC0050
:100080000C94EC000C94EC000C94EC0001000104C6
:10009000800011241FBECFEFD0E1DEBFCDBFECE862
:1000A000F0E040E019C0B791A791379127910791EF
:1000B00007FD0EC097918791EF01F92FE82F0BBF35
:1000C00007900D92A217B307D9F7FE011BBE04C01B
:1000D0001D92A217B307E1F7E139F40721F70E9457
:0A00E000DB000C947300F894FFCFCE
:1000EA001F920F920FB60F9211242F933F938F9363
:1000FA009F938091000190910101019690930101D3
:10010A00809300018F309105E1F420910201309132
:10011A000301232BB1F482B3805882BB10920101F0
:10012A001092000181E090E02091020130910301D8
:10013A00232B11F080E090E0909303018093020159
:10014A001DC04997D9F4809102019091030101974A
:10015A00A9F482B3805882BB109201011092000167
:10016A0081E090E02091020130910301232B11F0EC
:10017A0080E090E090930301809302019F918F9118
:0E018A003F912F910F900FBE0F901F90189570
:1001980020E030E008C0EFECF7E03197F1F700C05D
:0E01A80000002F5F3F4F28173907ACF3089572
:1001B60081B3806881BB0E94E5008AE090E00E94DE
:0401C600CC00FBCF9F
:0E01CA0087B7806887BF789485E085BD08956B
:0401D8000C94000083
:00000001FF
