:100000000C944C000C94A9010C94A9010C94A90126
:100010000C94A9010C94A9010C94A9010C94A901B8
:100020000C94A9010C94E8000C94A9010C94A9016A
:100030000C94A9010C94A9010C94A9010C94A90198
:100040000C94A9010C94A9010C94A9010C94A90188
:100050000C94A9010C94A9010C94A9010C94A90178
:100060000C94A9010C94A9010C94A9010C94A90168
:100070000C94A9010C94A9010C94A9010C94A90158
:100080000C94A9010C94A9010C94A901010001028E
:10009000000356010201048011241FBECFEFD0E1FE
:1000A000DEBFCDBFECE8F0E040E019C0B791A7910A
:1000B00037912791079107FD0EC097918791EF0126
:1000C000F92FE82F0BBF07900D92A217B307D9F7AE
:1000D000FE011BBE04C01D92A217B307E1F7E83969
:1000E000F40721F70E9478000C947600F894FFCF73
:1000F000CF93DF931F92CDB7DEB70E94000181B38B
:100100008F7781BB8FEF8ABB87BB0E94870100E09E
:1001100010E084B590E008171907D9F304B510E092
:100120008AE090E00E945E010E946D014AE050E08A
:10013000BE016F5F7F4FC8010E9493018AEF90E07C
:100140000E945E01CE0101960E947A018AEF90E042
:060150000E945E01DECFFB
:10015600CF938FEF84BB85BB81BB8ABB15BA1BBA15
:10016600C0E2C5BB0E941701C5BB0E94170180E80B
:1001760085BB0E94170115BA0E94170180EF85BB47
:100186000E94170115BA0E94170180E685BB0E94DE
:060196001701CF9108954E
:10019C00BB27FB015527AA27880F991FAA1FA41755
:1001AC0010F0A41B83955051B9F7A05DAA3308F049
:1001BC00A95DA193009779F7B111B1931192CB017D
:0401CC000C944E0140
:1001D0001F920F920FB60F9211248F939F9314BC0E
:1001E0008091020190910301019690930301809305
:1001F00002019F918F910F900FBE0F901F90189545
:100200000E94AB008FE19EE40197F1F700C000006F
:100210000E946D018FE39CE90197F1F700C0000097
:0E0220008FE39CE90197F1F700C000000895FC
:10022E008BB380648BBB8FEC97E00197F1F700C026
:10023E0000008BB38F7B8BBB8FEC97E00197F1F7B0
:06024E0000C0000008954D
:10025400CF93C82F85BB8BB38F7E8BBB0E941701B6
:10026400C295C07FC5BB8BB38F7E8BBB0E94170129
:04027400CF91089589
:10027800CF93C82F85BB8BB380618BBB0E941701BE
:10028800C295C07FC5BB8BB380618BBB0E94170131
:04029800CF91089565
:10029C00DC01FC01672F71917723E1F7329704C0E1
:1002AC007C916D9370836291AE17BF07C8F308956C
:1002BC0020E030E008C0EFECF7E03197F1F700C038
:0E02CC0000002F5F3F4F28173907ACF308954D
:1002DA0081E00E942A018FE99FE00197F1F700C0AF
:0A02EA00000080E80E942A01089538
:1002F400CF93DF93EC0103C00E943C0121968881D7
:0A0304008111FACFDF91CF91089527
:10030E00809100019091010183BD87B7806887BFFE
:08031E00789487E085BD089585
:100326004532510520F4423010F00C949E01FB0139
:060336001082CB010895C6
:10033C00BB274A3031F4992322F4BDE29095819584
:06034C009F4F0C94CF004E
:040352000C94000007
:02035600640041
:00000001FF
