:100000000C9446000C9417010C9417010C941701E2
:100010000C9417010C9417010C9417010C94170100
:100020000C9417010C9417010C9417010C941701F0
:100030000C9417010C9417010C9417010C941701E0
:100040000C9417010C9417010C9417010C941701D0
:100050000C9417010C9417010C9417010C941701C0
:100060000C9417010C9417010C9417010C941701B0
:100070000C9417010C9417010C9417010C941701A0
:100080000C9417010C9417010C94170111241FBE36
:10009000CFEFD0E1DEBFCDBF0E9458000C945000DE
:0400A000F894FFCF02
:0B00A4005768617420697320757000BC
:1000B000CF93DF93CDB7DEB72B970FB6F894DEBFA3
:1000C0000FBECDBF8FEF84BB85BB0E9482008FE146
:1000D0009EE40197F1F700C000000E94B60024EAF8
:1000E00030E040E08BE0F901DE011196742F0E94B0
:1000F000FC00CE0101960E940A018AE090E00E9475
:04010000ED00FBCF44
:10010400CF938FEF81BB8ABB15BA1BBAC0E2C5BBC4
:100114000E94A300C5BB0E94A30080E885BB0E9487
:10012400A30015BA0E94A30080EF85BB0E94A30020
:1001340015BA0E94A30080E685BB0E94A300CF915C
:0201440008951C
:100146008BB380648BBB8FEC97E00197F1F700C00F
:1001560000008BB38F7B8BBB8FEC97E00197F1F799
:0601660000C00000089536
:10016C0081E00E94DB008FE39CE90197F1F700C06E
:10017C00000080E80E94DB008FE19EE40197F1F71C
:06018C0000C00000089510
:10019200CF93C82F85BB8BB380618BBB0E94A3001A
:1001A200C295C07FC5BB8BB380618BBB0E94A3008D
:0401B200CF9108954C
:1001B600CF93C82F85BB8BB38F7E8BBB0E94A300CA
:1001C600C295C07FC5BB8BB38F7E8BBB0E94A3003D
:0401D600CF91089528
:1001DA0020E030E008C0EFECF7E03197F1F700C01B
:0E01EA0000002F5F3F4F28173907ACF3089530
:1001F800992777FD06C07BBF07900D920197E1F71D
:0C020800089501900D920197E1F7089510
:10021400CF93DF93EC0103C00E94C900219688812B
:0A0224008111FACFDF91CF91089508
:04022E000C9400002C
:00000001FF
