:100000000C9446000C9486000C9486000C94860098
:100010000C9486000C9486000C9486000C94860048
:100020000C9486000C9486000C9486000C94860038
:100030000C9486000C9486000C9486000C94860028
:100040000C9486000C9486000C9486000C94860018
:100050000C9486000C9486000C9486000C94860008
:100060000C9486000C9486000C9486000C948600F8
:100070000C9486000C9486000C9486000C948600E8
:100080000C9486000C9486000C94860011241FBEEC
:10009000CFEFD0E1DEBFCDBF0E9456000C945000E0
:0400A000F894FFCF02
:0800A400010240100804402095
:1000AC008FEF84BBC0E0D0E011C0CE010D2E000C50
:1000BC00AA0B8C559F4FAF4FFC015A2F0E947F000B
:1000CC0065BB8AEF90E00E9470002196C830D10584
:0400DC0064F3E8CF12
:1000E00020E030E008C0EFECF7E03197F1F700C016
:0E00F00000002F5F3F4F28173907ACF308952B
:0E00FE0057FD03C05BBF6791089560810895B0
:04010C000C9400004F
:00000001FF
