:100000000C944A000C9498000C9498000C9498005E
:100010000C9498000C9498000C9498000C94980000
:100020000C9498000C9498000C9498000C949800F0
:100030000C9498000C9498000C9498000C949800E0
:100040000C9498000C9498000C9498000C949800D0
:100050000C9498000C9498000C9498000C949800C0
:100060000C9498000C9498000C9498000C949800B0
:100070000C9498000C9498000C9498000C949800A0
:100080000C9498000C9498000C94980001000108BE
:100090000001340011241FBECFEFD0E1DEBFCDBF81
:1000A000ECE8F0E040E019C0B791A79137912791B3
:1000B000079107FD0EC097918791EF01F92FE82F67
:1000C0000BBF07900D92A217B307D9F7FE011BBE15
:1000D00004C01D92A217B307E1F7E339F40721F733
:0C00E0000E9476000C947400F894FFCF8E
:1000EC008FEF84BBC0E0D0E00AC0FE01E050FF4FB0
:1000FC00808185BB8AEF90E00E9489002196C830F0
:06010C00D1059CF3EFCFCA
:1001120020E030E008C0EFECF7E03197F1F700C0E3
:0E01220000002F5F3F4F28173907ACF30895F8
:040130000C9400002B
:08013400010240100804402004
:00000001FF
