:100000000C9446000C9413010C9413010C941301EE
:100010000C9413010C9413010C9413010C94130110
:100020000C9413010C9413010C9413010C94130100
:100030000C9413010C9413010C9413010C941301F0
:100040000C9413010C9413010C9413010C941301E0
:100050000C9413010C9413010C9413010C941301D0
:100060000C9413010C9413010C9413010C941301C0
:100070000C9413010C9413010C9413010C941301B0
:100080000C9413010C9413010C94130111241FBE42
:10009000CFEFD0E1DEBFCDBF0E9456000C945000E0
:0400A000F894FFCF02
:0800A4006D6161746A652100C1
:1000AC00CF93DF93CDB7DEB728970FB6F894DEBFAA
:1000BC000FBECDBF8FEF84BB85BB0E9484008FE148
:1000CC009EE40197F1F700C000000E94060124EAAB
:1000DC0030E040E088E0F901DE011196742F0E94B7
:1000EC00EB00CE0101960E94F90095B381E08927BF
:0C00FC0085BB8AEF90E00E94DC00F7CF8B
:10010800CF938FEF81BB8ABB15BA1BBAC0E2C5BBC0
:100118000E94A500C5BB0E94A50080E885BB0E947F
:10012800A50015BA0E94A50080EF85BB0E94A50016
:1001380015BA0E94A50080E685BB0E94A500CF9154
:02014800089518
:10014A008BB380648BBB8FEC97E00197F1F700C00B
:10015A0000008BB38F7B8BBB8FEC97E00197F1F795
:06016A0000C00000089532
:10017000CF93C82F85BB8BB380618BBB0E94A5003A
:10018000C295C07FC5BB8BB380618BBB0E94A500AD
:04019000CF9108956E
:10019400CF93C82F85BB8BB38F7E8BBB0E94A500EA
:1001A400C295C07FC5BB8BB38F7E8BBB0E94A5005D
:0401B400CF9108954A
:1001B80020E030E008C0EFECF7E03197F1F700C03D
:0E01C80000002F5F3F4F28173907ACF3089552
:1001D600992777FD06C07BBF07900D920197E1F73F
:0C01E600089501900D920197E1F7089533
:1001F200CF93DF93EC0103C00E94B800219688815F
:0A0202008111FACFDF91CF9108952A
:10020C0081E00E94CA008FE99FE00197F1F700C0DE
:0A021C00000080E80E94CA00089567
:040226000C94000034
:00000001FF
