:100000000C9449000C94A3000C94D7000C94D700D6
:100010000C94D7000C94D7000C94D7000C94D70004
:100020000C94D7000C94D7000C94D7000C94D700F4
:100030000C94D7000C94D7000C94D7000C94D700E4
:100040000C94D7000C94D7000C94D7000C94D700D4
:100050000C94D7000C94D7000C94D7000C94D700C4
:100060000C94D7000C94D7000C94D7000C94D700B4
:100070000C94D7000C94D7000C94D7000C94D700A4
:100080000C94D7000C94D7000C94D7000100010207
:10009000800011241FBECFEFD0E1DEBFCDBFECE862
:1000A000F0E040E019C0B791A791379127910791EF
:1000B00007FD0EC097918791EF01F92FE82F0BBF35
:1000C00007900D92A217B307D9F7FE011BBE04C01B
:1000D0001D92A217B307E1F7E139F40721F70E9457
:0A00E00075000C947300F894FFCF34
:1000EA0011BA109261008FEF8ABB87BB0E94D200BF
:1000FA00EAE6F0E080818B60808389B7836089BFFC
:10010A0078948091000190910101892B91F084B13A
:10011A0088BB85B18BBB81E090E0209100013091D2
:10012A000101232B11F080E090E09093010180936C
:0C013A00000184E690E00E94C300E3CFC7
:100146001F920F920FB60F9211242F933F938F9306
:100156009F9381E090E02091000130910101232BD3
:1001660011F080E090E090930101809300019F914F
:100176008F913F912F910F900FBE0F901F90189562
:1001860020E030E008C0E9EFF0E03197F1F700C079
:0E01960000002F5F3F4F28173907ACF3089584
:0A01A40081E687B986EE86B908955A
:0401AE000C940000AD
:00000001FF
