:100000000C9453000C94AA030C94AA030C94AA0316
:100010000C94AA030C94AA030C94AA030C94AA03AC
:100020000C94AA030C94AA030C94AA030C94AA039C
:100030000C94AA030C94AA030C94AA030C94AA038C
:100040000C94AA030C94AA030C94AA030C94AA037C
:100050000C94AA030C94AA030C94AA030C94AA036C
:100060000C94AA030C94AA030C94AA030C94AA035C
:100070000C94AA030C94AA030C94AA030C94AA034C
:100080000C94AA030C94AA030C94AA039F00B80032
:10009000D100EA0003011C01350101000102000743
:1000A00058010201048011241FBECFEFD0E1DEBF52
:1000B000CDBFEAE9F0E040E019C0B791A7913791D0
:1000C0002791079107FD0EC097918791EF01F92FB6
:1000D000E82F0BBF07900D92A217B307D9F7FE01C7
:1000E0001BBE04C01D92A217B307E1F7E63AF4075E
:0E00F00021F70E9477030C947D00F894FFCF57
:1000FE00CF93DF9300D0CDB7DEB79A83898381E3A8
:10010E0090E0FC01108289819A81092E000CAA0BC5
:10011E00BB0B40E050E026E030E0841B950B281727
:10012E00390708F4B4C08A5B9F4FFC010C946E0330
:10013E0061E070E080E090E00E94F50261E070E026
:10014E0082E090E00E94F50260E070E082E090E0D4
:10015E000E94180361E070E080E090E00E941803B6
:10016E0096C061E070E083E090E00E94F50261E0ED
:10017E0070E082E090E00E94F50260E070E082E0C4
:10018E0090E00E94180361E070E083E090E00E942E
:10019E0018037DC061E070E083E090E00E94F502FC
:1001AE0061E070E081E090E00E94F50260E070E0B6
:1001BE0081E090E00E94180361E070E083E090E03F
:1001CE000E94180364C061E070E081E090E00E943C
:1001DE00F50261E070E080E090E00E94F50260E0E0
:1001EE0070E080E090E00E94180361E070E081E032
:1001FE0090E00E9418034BC061E070E080E090E058
:10020E000E94F50261E070E081E090E00E94F5024C
:10021E0060E070E081E090E00E94180361E070E021
:10022E0080E090E00E94180332C061E070E082E04E
:10023E0090E00E94F50261E070E080E090E00E94A4
:10024E00F50260E070E080E090E00E94180361E04B
:10025E0070E082E090E00E94180319C061E070E047
:10026E0082E090E00E94F50261E070E081E090E0B3
:10027E000E94F50260E070E081E090E00E941803B9
:10028E0061E070E082E090E00E9418030000000040
:0A029E000F900F90DF91CF910895AB
:1002A800CF93DF93CDB7DEB762970FB6F894DEBF72
:1002B8000FBECDBF9A8B898B1A82198277C080E0D6
:1002C80090E0A0E8BFE38B839C83AD83BE8320E0EE
:1002D80030E04AEF54E46B817C818D819E810E94DD
:1002E800A303DC01CB018F839887A987BA8720E015
:1002F80030E040E85FE36F81788589859A850E94C0
:10030800990388232CF481E090E09C878B873FC079
:1003180020E03FEF4FE757E46F81788589859A851C
:100328000E949E0318164CF520E030E040E251E4AC
:100338006B817C818D819E810E94A303DC01CB01AE
:10034800BC01CD010E94A202DC01CB019C878B87F6
:100358000FC088EC90E09E878D878D859E850197DC
:10036800F1F79E878D878B859C8501979C878B8766
:100378008B859C85892B69F714C06F817885898561
:100388009A850E94A202DC01CB019C878B878B8512
:100398009C85988B8F878F8598890197F1F7988B23
:1003A8008F8789819A8101969A83898329813A81E5
:1003B80089899A89281739070CF481CF0000629639
:1003C8000FB6F894DEBF0FBECDBFDF91CF91089571
:1003D8000FC00E94850338F00E948C0320F09523FB
:1003E80011F00C9493030C94A70311240C947F032D
:1003F8000E943B0370F3959FC1F3950F50E0551F82
:10040800629FF001729FBB27F00DB11D639FAA2761
:10041800F00DB11DAA1F649F6627B00DA11D661FB0
:10042800829F2227B00DA11D621F739FB00DA11DD1
:10043800621F839FA00D611D221F749F3327A00D8B
:10044800611D231F849F600D211D822F762F6A2F27
:1004580011249F5750409AF0F1F088234AF0EE0F8C
:10046800FF1FBB1F661F771F881F91505040A9F7B9
:100478009E3F510580F00C9493030C947F035F3FDB
:10048800E4F3983ED4F3869577956795B795F795F5
:10049800E7959F5FC1F7FE2B880F911D969587956D
:0404A80097F9089523
:1004AC00CF93DF9300D000D0CDB7DEB7809102019F
:1004BC0090910301019690930301809302011A829B
:1004CC0019821AC01C821B8209C08B819C810E94DC
:1004DC007F008B819C8101969C838B838091020190
:1004EC00909103012B813C812817390774F3898182
:1004FC009A8101969A83898389819A81883E934057
:10050C000CF388EE93E00E9454012091020130918B
:10051C00030180910001909101018217930724F44B
:10052C00109203011092020100000F900F900F9097
:08053C000F90DF91CF910895AB
:100544000E94430388F09F5798F0B92F9927B75119
:10055400B0F0E1F0660F771F881F991F1AF0BA9563
:10056400C9F714C0B13091F00E947E03B1E0089540
:100574000C947E03672F782F8827B85F39F0B93F32
:10058400CCF3869577956795B395D9F73EF4909516
:0E0594008095709561957F4F8F4F9F4F089512
:1005A200990F0008550FAA0BE0E8FEEF1616170682
:1005B200E807F907C0F012161306E407F50798F0EA
:1005C200621B730B840B950B39F40A2661F0232B03
:1005D200242B252B21F408950A2609F4A140A6957F
:0805E2008FEF811D811D0895BA
:1005EA00CF93DF9300D000D0CDB7DEB79A8389834B
:1005FA007C836B8381E390E021E330E0F901408161
:10060A002B813C81098002C0220F331F0A94E2F732
:10061A002427FC01208300000F900F900F900F9069
:06062A00DF91CF9108955D
:10063000CF93DF9300D000D0CDB7DEB79A83898304
:100640007C836B8382E390E022E330E0F901408118
:100650002B813C81098002C0220F331F0A94E2F7EC
:100660002427FC01208300000F900F900F900F9023
:06067000DF91CF91089517
:1006760057FD9058440F551F59F05F3F71F047954D
:10068600880F97FB991F61F09F3F79F08795089532
:10069600121613061406551FF2CF4695F1DF08C051
:1006A600161617061806991FF1CF8695710561056E
:0406B6000894089507
:1006BA00092E0394000C11F4882352F0BB0F40F466
:1006CA00BF2B11F460FF04C06F5F7F4F8F4F9F4FA6
:0206DA00089581
:1006DC00EE0FFF1F0024001C0BBE0790F691E02DBF
:0206EC0009946F
:0E06EE00CF93DF93CDB7DEB70E945602FDCF4B
:0E06FC00E894BB2766277727CB0197F908956E
:0E070A0000240A94161617061806090608950C
:0E07180000240A94121613061406050608950E
:0C07260097F99F6780E870E060E008959C
:0A0732000E94D10208F481E008954E
:0A073C000E94D10208F48FEF089527
:080746000E94EC010C945D031C
:06074E009FEF80EC08950E
:040754000C94000001
:02075800070098
:00000001FF
