:100000000C9446000C9452000C9466000C948800EA
:100010000C9488000C9488000C9488000C94880040
:100020000C9488000C9488000C9488000C94880030
:100030000C9488000C9488000C9488000C94880020
:100040000C9488000C9488000C9488000C94880010
:100050000C9488000C9488000C9488000C94880000
:100060000C9488000C9488000C9488000C948800F0
:100070000C9488000C9488000C9488000C948800E0
:100080000C9488000C9488000C94880011241FBEE6
:10009000CFEFD0E1DEBFCDBF0E947A000C945000BC
:0400A000F894FFCF02
:1000A4001F920F920FB60F9211248F9385B3880F6E
:1000B40085BB85B3811102C081E085BB8F910F9010
:0800C4000FBE0F901F9018956C
:1000CC001F920F920FB60F9211248F9385B38695C2
:1000DC0085BB85B3811102C080E885BB8F910F90E1
:0800EC000FBE0F901F90189544
:1000F40080EF81BB8FEF84BBEAE6F0E080818B6008
:0C010400808389B7836089BF7894FFCFA7
:040110000C9400004B
:00000001FF
